:020000040800F2
:10000000000001208D2B00088705000889050008E5
:100010008B0500088D0500088F0500080000000012
:100020000000000000000000000000009105000832
:1000300093050008000000009505000897050008DA
:10004000DD2B0008DD2B0008DD2B0008DD2B000870
:10005000DD2B0008DD2B0008DD2B0008DD2B000860
:10006000DD2B0008DD2B0008DD2B0008DD2B000850
:10007000DD2B0008DD2B0008DD2B0008DD2B000840
:10008000DD2B0008DD2B0008DD2B0008DD2B000830
:10009000DD2B0008DD2B0008DD2B0008DD2B000820
:1000A000DD2B0008DD2B0008DD2B0008DD2B000810
:1000B000DD2B0008DD2B0008DD2B0008DD2B000800
:1000C000DD2B0008A1050008B1050008DD2B0008A4
:1000D000DD2B0008DD2B0008C1050008DD2B000822
:1000E000DD2B0008DD2B0008DD2B0008DD2B0008D0
:1000F000DD2B0008DD2B0008DD2B0008DD2B0008C0
:10010000DD2B00080000000000000000DD2B0008CF
:10011000DD2B0008DD2B0008DD2B0008DD2B00089F
:10012000DD2B0008DD2B0008DD2B0008DD2B00088F
:10013000DD2B0008DD2B000800000000000000009F
:10014000DD2B0008DD2B0008DD2B0008000000007F
:10015000000000000000000000000000000000009F
:10016000DD2B0008DD2B0008DD2B0008DD2B00084F
:10017000DD2B0008DD2B0008DD2B0008DD2B00083F
:10018000DD2B0008DD2B000800000000000000004F
:04019000DD2B00085B
:1001940010B5054C237833B9044B13B10448AFF3BD
:1001A40000800123237010BD0C000020000000001B
:1001B400482C000808B5034B1BB103490348AFF3AF
:1001C400008008BD0000000010000020482C00083A
:1001D400034613F8012B002AFBD1181A0138704783
:1001E40000B585B08DF80F20012200920DF10F03A8
:1001F40000F046F805B05DF804FB38B5044641F25A
:10020400D77595FBF1F5EDB204220121FFF7E8FF64
:10021400102200212046FFF7E3FF2A46FE21204654
:10022400FFF7DEFF812200212046FFF7D9FF0020DF
:1002340038BD2DE9F04106460C4690461F468D0018
:10024400EDB2A91DD2B201F0FE01FFF7C9FFE91D0D
:100254004FEA1822C9B23046FFF7C2FFA11C890039
:10026400FAB201F0FC013046FFF7BAFF05F10901CB
:100274003A0AC9B23046FFF7B3FF0020BDE8F08167
:1002840010B584B00A240294BDF818400194009378
:1002940013460A464100024802F080F804B010BD3B
:1002A4006400002008B500F06BF908BD10B50146E4
:1002B4000E4B1B78002BFBD10C4B01221A700C4CFB
:1002C400204602F0B7FC2046FFF782FF094B1B884B
:1002D4002352074C2046FFF77BFF82B22146064893
:1002E40000F06AFA0028F4D110BD00BF5E000020BF
:1002F4002C000020602C0008B000002008B501226A
:100304000349044800F090FA0028F8D108BD00BF62
:1003140028000020B0000020014B00221A70704712
:100324005E00002008B501220249034800F07CFA6F
:1003340008BD00BF28000020B000002008B50268F6
:10034400034B9A4200D008BDFFF7E6FFFBE700BF6E
:100354000044004008B50268034B9A4200D008BD2F
:10036400FFF7E0FFFBE700BF0044004008B54FF48F
:100374007A714020FFF741FF00231A4601214020F3
:10038400FFF757FF0CE09BB2002201214020FFF74A
:1003940050FF052000F0BAFE0D4A136814331360B1
:1003A4000B4B1B68B3F5805FEDD3094B1B68002B27
:1003B400F6D09BB2002201214020FFF73AFF05202E
:1003C40000F0A4FE024A1368143B1360EDE700BF7B
:1003D4006000002010B58AB00024059406940794A8
:1003E40008940994204B5A6942F400225A615A69CC
:1003F40002F400220192019A5A6942F480025A617D
:100404005A6902F480020292029A5A6942F4003252
:100414005A615A6902F400320392039A5A6942F407
:1004240080225A615B6903F480230493049B22466F
:1004340020214FF0904001F033FD4FF40053059319
:100444000A4B0693079405A9094801F051FC20239F
:100454000593012306930794089405A94FF090404F
:1004640001F046FC0AB010BD00100240000021104B
:100474000008004808B50948094B03604FF41653B7
:10048400436000238360C36003610C224261836183
:10049400C3610362436200F0BDFD08BDB0000020EB
:1004A4000044004038B50D4C0D4B23600D4B636088
:1004B4000025A5600123E36025616561A561E5610F
:1004C4002562204601F00CFF2946204602F0F3FA8B
:1004D4002946204602F01DFB38BD00BF6400002001
:1004E400005800400E09002030B5A7B000241D9428
:1004F4001E9421941794189419941A941B945822B6
:10050400214601A802F08EFB02251C9501231F93AE
:100514001023209322954FF4004323934FF4E013C8
:10052400249325941CA800F005FE0F231793189517
:1005340019944FF480631A931B94294617A801F069
:1005440051F9422301930494099401A801F050FA4B
:1005540027B030BD08B500F0B5FDFFF7C5FFFFF7C4
:1005640039FFFFF787FFFFF79DFF0448FFF79EFE63
:10057400FFF7C4FEFFF7FAFEFEE700BF642C000895
:1005840070477047FEE7FEE7FEE7FEE770477047F7
:10059400704708B500F0A8FD08BD000008B5024882
:1005A40001F0D0FF08BD00BF6400002008B5024878
:1005B40002F037FA08BD00BF6400002008B5024805
:1005C40000F00EFA08BD00BFB000002000B583B0F3
:1005D4000C4B9A6942F001029A619A6902F0010295
:1005E4000092009ADA6942F08052DA61DB6903F022
:1005F40080530193019B072001F07CFC03B05DF85C
:1006040004FB00BF0010024010B588B00023039320
:10061400049305930693079302681C4B9A4201D0F6
:1006240008B010BD1A4C636943F400336361636915
:1006340003F400330193019B4FF4C063039312232B
:10064400049301230593032306930423079303A927
:100654004FF0904001F04CFBE36943F48003E36105
:10066400E36903F480030293029B002211462120D4
:1006740001F052FC212001F083FC002211462220CB
:1006840001F04AFC222001F07BFCC9E7005800403D
:100694000010024010B588B000230393049305931F
:1006A400069307930268184B9A4201D008B010BD14
:1006B40003F5E633DA6942F40032DA61DA6902F406
:1006C40000320192019A5A6942F400325A615B691C
:1006D40003F400330293029B0C2303930223049339
:1006E4000024059406940723079303A94FF0904030
:1006F40001F0FEFA22462146262001F00DFC2620B8
:1007040001F03EFCD2E700BF0044004002681368D9
:1007140023F4907313600268936823F001039360D9
:1007240020238367002303667047436F212B00D087
:100734007047B0F852309BB253B90268136823F083
:10074400800313600268136843F04003136070472A
:10075400C26C036812781A85C36C0133C364B0F8A1
:1007640052309BB2013B9BB2A0F85230E0E7436F9A
:10077400212B00D07047B0F852309BB253B90268B5
:10078400136823F0800313600268136843F0400386
:1007940013607047C36C1B880268C3F30803138596
:1007A400C36C0233C364B0F852309BB2013B9BB2BA
:1007B400A0F85230DEE70000436F202B27D141B36D
:1007C4004AB390F87030012B27D0012380F87030A1
:1007D400C164A0F85020A0F852200023C36721234D
:1007E40043678368B3F5805F0BD00D4B43660023EA
:1007F40080F8703001680A6842F080020A60184686
:1008040070470369002BF0D1064B4366EFE70220E3
:10081400704701207047012070470220704700BFD5
:100824002F07000873070008836F202B5AD1002973
:100834005AD0002A5AD090F87030012B58D0012396
:1008440080F870304165A0F85820A0F85A200023A1
:1008540003668368B3F5805F06D0A3B9036973B9EF
:10086400FF23A0F85C3014E0036923B940F2FF13BE
:10087400A0F85C300DE0FF23A0F85C3009E07F2392
:10088400A0F85C3005E0B3F1805F1BD00023A0F832
:100894005C300023C367222383670268936843F0B4
:1008A400010393608368B3F5805F15D0114B036631
:1008B400002380F8703001680A6842F490720A607C
:1008C4001846704703691BB97F23A0F85C30E0E742
:1008D4003F23A0F85C30DCE70369002BE6D1064B2C
:1008E4000366E5E702207047012070470120704746
:1008F400022070471B0900087F09000808B5016839
:100904000A6822F040020A602022426700224266FE
:10091400FFF714FD08BD08B5B0F85C30826F222AD9
:1009240005D00268936943F00803936108BD026827
:10093400918CDBB2426D0B401370436D0133436500
:10094400B0F85A309BB2013B9BB2A0F85A30B0F8D1
:100954005A309BB2002BE9D10268136823F49073D8
:1009640013600268936823F0010393602023836774
:1009740000230366FFF7EEFCD8E708B5B0F85C3057
:10098400826F222A05D00268936943F008039361B9
:1009940008BD0268918C426D0B401380436D023395
:1009A4004365B0F85A309BB2013B9BB2A0F85A3071
:1009B400B0F85A309BB2002BEAD10268136823F4D2
:1009C400907313600268936823F0010393602023FB
:1009D400836700230366FFF7BDFCD9E77047000077
:1009E40038B504460168CB6908688D6840F60F0283
:1009F4001A4005D113F0200F02D010F0200F1CD1A3
:100A04002AB115F001021ED110F4907F1BD113F40A
:100A1400801F03D015F4800F40F08E8013F0800FF8
:100A240003D010F0800F40F08E8013F0400F03D0FD
:100A340010F0400F40F08E8038BD236E002BFBD0A9
:100A440020469847F8E713F0010F07D010F4807F91
:100A540004D001250D62E16F2943E16713F0020F11
:100A640007D032B1216802250D62E16F41F0040123
:100A7400E16713F0040F07D032B1216804250D6239
:100A8400E16F41F00201E16713F0080F09D010F0A3
:100A9400200F00D12AB1226808211162E26F0A43B3
:100AA400E26713F4006F0AD010F0806F07D0226859
:100AB4004FF400611162E26F42F02002E267E26FDC
:100AC400002AB9D013F0200F06D010F0200F03D065
:100AD400236E0BB120469847E26F23689B6813F09E
:100AE400400F02D112F0280F20D02046FFF70EFE4F
:100AF40023689A6812F0400F14D09A6822F04002DA
:100B04009A60E36E53B1154A5A63E06E01F0CDF971
:100B1400002891D0E06E436B98478DE72046FFF79D
:100B24005DFF89E72046FFF759FF85E72046FFF779
:100B340055FF0023E3677FE74FF480130B622046E1
:100B440000F099FA78E7636E002B3FF475AF204606
:100B5400984771E72046FFF7D1FE6DE7650B000863
:100B640008B5406A0023A0F85A30A0F85230FFF7C5
:100B740035FF08BD38B504468368026913434269EA
:100B84001343C269134301680868A54A024013432A
:100B94000B602268536823F44053E1680B435360AD
:100BA400A269236A1A4321688B6823F430631343D0
:100BB4008B6023689B4A93420DD09B4A93421CD07E
:100BC4009A4A93423ED09A4A93424ED0994A9342CB
:100BD4005ED010251FE0984B1B6B03F00303032B1F
:100BE40009D8DFE803F002040668012513E00425B0
:100BF40011E008250FE010250DE08F4B1B6B03F46B
:100C04004033B3F5003F58D017D8002B57D0B3F575
:100C1400803F56D10425E369B3F5004F6DD0082D0C
:100C240000F2F680DFE815F0B700CC00D600F4003F
:100C3400E100F400F400F400EB00B3F5403F42D1CE
:100C44000225E8E77C4B1B6B03F44023B3F5002F2C
:100C54003BD005D8DBB3B3F5802F3AD10425DAE7CE
:100C6400B3F5402F37D10225D5E7734B1B6B03F443
:100C74004013B3F5001F30D005D883B3B3F5801FFC
:100C84002FD10425C7E7B3F5401F2CD10225C2E7B5
:100C9400694B1B6B03F44003B3F5000F25D005D853
:100CA4002BB3B3F5800F24D10425B4E7B3F5400F7B
:100CB40021D10225AFE70225ADE70825ABE70025E2
:100CC400A9E71025A7E71025A5E70825A3E7002530
:100CD400A1E710259FE710259DE708259BE7002540
:100CE40099E7102597E7102595E7082593E7002550
:100CF40091E710258FE710258DE7082D48D8DFE808
:100D040005F0051D2847334747473E0000F044FEE1
:100D14006268530803EB4003B3FBF2F39BB2A3F105
:100D240010014FF6EF72914275D89AB222F00F0279
:100D3400C3F3420313432268D3603CE000F042FE55
:100D44006268530803EB4003B3FBF2F39BB2002544
:100D5400E5E76268530803F5740303F51053B3FB26
:100D6400F2F39BB20025DAE700F004FD6268530851
:100D740003EB4003B3FBF2F39BB20025CFE76268B9
:100D8400530803F58033B3FBF2F39BB20025C6E7A7
:100D940001250023C3E700F0FFFD626800EB520366
:100DA400B3FBF2F39BB2A3F110014FF6EF72914241
:100DB40033D82268D360002323666366284638BD8F
:100DC40000F000FE626800EB5203B3FBF2F39BB247
:100DD4000025E8E76268530803F5F40303F590532C
:100DE400B3FBF2F39BB20025DDE700F0C3FC6268BD
:100DF40000EB5203B3FBF2F39BB20025D3E7626826
:100E0400530803F50043B3FBF2F39BB20025CAE792
:100E140001250023C7E70125CDE70125CBE700BF66
:100E2400F369FFEF003801400044004000480040EF
:100E3400004C00400050004000100240436A13F090
:100E4400010F06D00268536823F40033816A0B4310
:100E54005360436A13F0020F06D00268536823F408
:100E64008033C16A0B435360436A13F0040F06D006
:100E74000268536823F48023016B0B435360436A75
:100E840013F0080F06D00268536823F40043416B43
:100E94000B435360436A13F0100F06D00268936843
:100EA40023F48053816B0B439360436A13F0200F48
:100EB40006D00268936823F40053C16B0B4393601C
:100EC400436A13F0400F0AD00268536823F4801376
:100ED400016C0B435360036CB3F5801F0BD0436A62
:100EE40013F0800F06D00268536823F40023816C4A
:100EF4000B43536070470268536823F4C003416C8A
:100F04000B435360EBE72DE9F84305460F461646BD
:100F14009946DDF820802C68E46937EA04030CBFA5
:100F240001240024B4423CD1B8F1FF3FF3D000F0D7
:100F3400E7F8A0EB0900404521D8B8F1000F1ED016
:100F44002B681A6812F0040FE5D0DA6912F4006F06
:100F5400E1D04FF400621A622A68136823F4D07354
:100F640013602A68936823F00103936020236B675E
:100F7400AB67EB67002385F87030032012E02A6822
:100F8400136823F4D07313602A68936823F0010371
:100F9400936020236B67AB67002385F870300320D0
:100FA40000E00020BDE8F88330B583B00446002398
:100FB400C36700F0A5F8054623681B6813F0080F03
:100FC4000CD123681B6813F0040F15D12023636729
:100FD400A367002084F8700003B030BD6FF07E4337
:100FE4000093034600224FF400112046FFF78BFFC5
:100FF4000028E6D00320EFE76FF07E4300932B46F2
:1010040000224FF480012046FFF77DFF0028DDD049
:101014000320E1E768B310B50446436F03B3242308
:1010240063672268136823F0010313602046FFF707
:10103400A1FD012813D0636ABBB92268536823F465
:10104400904353602268936823F02A0393602268D4
:10105400136843F0010313602046FFF7A5FF10BD9A
:1010640080F87030FFF716FBD9E72046FFF7E6FE5D
:10107400E3E701207047704710B504460E4B18781B
:101084004FF47A73B3FBF0F30C4A1068B0FBF3F03F
:1010940000F084FF68B90F2C01D901200AE0002276
:1010A40021464FF0FF3000F037FF054B1C60002055
:1010B40000E0012010BD00BF000000200800002057
:1010C4000400002008B5074A136843F010031360B6
:1010D400032000F00FFF0020FFF7CEFFFFF776FAA2
:1010E400002008BD00200240034A1168034B1B780E
:1010F4000B441360704700BF300100200000002043
:10110400014B1868704700BF3001002038B5044611
:10111400FFF7F6FF0546B4F1FF3F02D0044B1B78FE
:101124001C44FFF7EDFF401BA042FAD338BD00BFBB
:1011340000000020002800F0038370B582B004464C
:10114400036813F0010F3DD0C74B5B6803F00C0339
:10115400042B20D0C44B5B6803F00C03082B13D082
:101164006368B3F5803F6AD0002B40F08D8003F1B3
:10117400804303F504331A6822F480321A601A6833
:1011840022F480221A605FE0B74B5B6803F4C0333B
:10119400B3F5803FE4D14FF4003393FAA3F3B24B99
:1011A40019684FF4003393FAA3F3B3FA83F303F00B
:1011B4001F03012202FA03F30B4203D06368002BDE
:1011C40000F0C082236813F0020F00F0C080A64B29
:1011D4005B6813F00C0F00F09780A34B5B6803F07F
:1011E4000C03082B00F08880E368002B00F0ED80EE
:1011F400012292FAA2F3B3FA83F303F1845303F5C1
:1012040084139B001A60FFF77BFF0546022393FAC1
:10121400A3F3954B1968022393FAA3F3B3FA83F368
:1012240003F01F03012202FA03F30B4240F0BE80D5
:10123400FFF766FF401B0228E8D903208BE28A4AA5
:10124400136843F4803313606368002B36D0FFF7D0
:1012540057FF05464FF4003393FAA3F3824B196802
:101264004FF4003393FAA3F3B3FA83F303F01F03A9
:10127400012202FA03F30B42A4D1FFF741FF401B02
:101284006428E7D9032066E2B3F5A02F09D0764B92
:101294001A6822F480321A601A6822F480221A60D2
:1012A400D2E703F18043A3F53C331A6842F4802269
:1012B4001A601A6842F480321A60C5E7FFF720FF0B
:1012C40005464FF4003393FAA3F3674B19684FF4C0
:1012D400003393FAA3F3B3FA83F303F01F03012259
:1012E40002FA03F30B423FF46DAFFFF709FF401B13
:1012F4006428E6D903202EE25B4B5B6803F4C03319
:10130400B3F5004F7FF470AF022393FAA3F3564B67
:101314001968022393FAA3F3B3FA83F303F01F03C8
:10132400012202FA03F30B4203D0E368934240F034
:101334000B824D48036823F0F8032169F82292FADE
:10134400A2F2B2FA82F201FA02F2134303602368B2
:1013540013F0080F00F08C806369002B5CD001212E
:1013640091FAA1F2B2FA82F2404B13449B00196045
:10137400FFF7C6FE0546022393FAA3F293FAA3F2FB
:1013840093FAA3F2384A516A93FAA3F3B3FA83F3B4
:1013940003F01F03012202FA03F30B4268D1FFF7A3
:1013A400AFFE401B0228E6D90320D4E12E4803688F
:1013B40023F0F8032169F82292FAA2F2B2FA82F237
:1013C40001FA02F213430360C1E7012393FAA3F382
:1013D400B3FA83F303F1845303F584139B000022CF
:1013E4001A60FFF78DFE0546022393FAA3F31E4B02
:1013F4001968022393FAA3F3B3FA83F303F01F03E8
:10140400012202FA03F30B42A1D0FFF779FE401B3D
:101414000228E9D903209EE1012292FAA2F2B2FA4B
:1014240082F2124B13449B0000221A60FFF768FEFD
:101434000546022393FAA3F293FAA3F293FAA3F2D2
:10144400094A516A93FAA3F3B3FA83F303F01F032F
:10145400012202FA03F30B420AD0FFF751FE401BAC
:101464000228E6D9032076E1001002402081901082
:10147400236813F0040F00F0A980BB4BDB6913F061
:10148400805F20D1B84BDA6942F08052DA61DB69BF
:1014940003F080530193019B0125B44B1B6813F4A3
:1014A400807F12D0A368012B23D073BB03F1804348
:1014B40003F504331A6A22F001021A621A6A22F04E
:1014C40004021A621AE00025E7E7A84A136843F405
:1014D40080731360FFF714FE0646A44B1B6813F4D5
:1014E400807FDFD1FFF70CFE801B6428F5D9032031
:1014F40031E19D4A136A43F001031362A368002B90
:101504003CD0FFF7FDFD06462EE0052B09D0964B97
:101514001A6A22F001021A621A6A22F004021A629A
:10152400ECE7914B1A6A42F004021A621A6A42F01A
:1015340001021A62E2E7022393FAA3F38A4B596A7F
:10154400022393FAA3F3B3FA83F303F01F030122F4
:1015540002FA03F3194238D1FFF7D2FD801B41F29E
:101564008833984200F2F280022393FAA3F293FAAA
:10157400A3F3002BDFD07C4B196AE1E7FFF7C0FD32
:10158400064618E0022393FAA3F3774B596A022321
:1015940093FAA3F3B3FA83F303F01F03012202FACD
:1015A40003F3194211D0FFF7ABFD801B41F28833DE
:1015B400984200F2CD80022393FAA3F293FAA3F3A4
:1015C400002BDFD0684B196AE1E7B5BBA369002B98
:1015D40000F0C080644A526802F00C02082A00F04D
:1015E4009980022B2FD04FF0807393FAA3F3B3FAB0
:1015F40083F303F1845303F584139B0000221A60E0
:10160400FFF77EFD04464FF0007393FAA3F3564BA5
:1016140019684FF0007393FAA3F3B3FA83F303F05A
:101624001F03012202FA03F3194271D0FFF768FD88
:10163400001B0228E7D903208DE04B4AD36923F02D
:101644008053D361C2E74FF0807393FAA3F3B3FAE4
:1016540083F303F1845303F584139B0000221A607F
:10166400FFF74EFD05464FF0007393FAA3F33E4B8C
:1016740019684FF0007393FAA3F3B3FA83F303F0FA
:101684001F03012202FA03F3194206D0FFF738FDC3
:10169400401B0228E7D903205DE0334AD36A23F0D4
:1016A4000F03616A0B43D362536823F47613216AF0
:1016B400E06901430B4353604FF0807393FAA3F343
:1016C400B3FA83F303F1845303F584139B000122DB
:1016D4001A60FFF715FD04464FF0007393FAA3F365
:1016E400214B19684FF0007393FAA3F3B3FA83F311
:1016F40003F01F03012202FA03F3194206D1FFF794
:10170400FFFC001B0228E7D9032024E0002022E08C
:10171400002020E0012B20D0134A5368D06A03F440
:10172400C031E26991421AD103F47013226A9342E0
:1017340017D100F00F00636A984219D100200AE023
:1017440001207047012006E0012004E0032002E0AC
:10175400032000E0002002B070BD0120FBE701205F
:10176400F9E70120F7E700BF0010024000700040D5
:101774000120F0E7174B5B6803F00C02082A01D044
:101784001548704703F470114FF4701292FAA2F2E4
:10179400B2FA82F221FA02F21049885C0D4AD26A46
:1017A40002F00F020F2191FAA1F1B1FA81F1CA40BE
:1017B4000B498A5C13F4803F05D0074BB3FBF2F36B
:1017C40000FB03F07047044BB3FBF2F300FB03F0A0
:1017D400704700BF0010024000127A00702C00080D
:1017E400802C0008002800F0BE8070B50D46044629
:1017F400614B1B6803F007038B420BD25E4A1368EC
:1018040023F007030B431360136803F007038B42B1
:1018140040F0AB80236813F0020F06D0574A536898
:1018240023F0F003A1680B435360236813F0010F06
:101834005AD06368012B2DD0022B40D0022292FA99
:10184400A2F24E4A1068022292FAA2F2B2FA82F28C
:1018540002F01F02012101FA02F2104200F0878017
:1018640046494A6822F0030213434B60FFF748FCE1
:101874000646424B5B6803F00C036268B3EB820FCD
:1018840032D0FFF73DFC801B41F288339842F0D9F7
:10189400032067E04FF4003292FAA2F2374A10684C
:1018A4004FF4003292FAA2F2B2FA82F202F01F026C
:1018B400012101FA02F20242D2D1012052E04FF09A
:1018C400007292FAA2F22D4A10684FF0007292FA56
:1018D400A2F2B2FA82F202F01F02012101FA02F22C
:1018E4001042BDD101203DE0234B1B6803F00703E8
:1018F400AB420AD9204A136823F007032B43136031
:10190400136803F00703AB4233D1236813F0040FC9
:1019140006D01A4A536823F4E063E1680B4353602A
:10192400236813F0080F07D0144A536823F4605354
:10193400216943EAC1035360FFF71CFF0F4B5B6847
:1019440003F0F003F02292FAA2F2B2FA82F2D34048
:101954000B4AD35CD8400B4B18600B4B1868FFF74D
:101964008BFB002070BD012070470120FAE70120A5
:10197400F8E70120F6E700BF002002400010024013
:10198400902C00080800002004000020014B186877
:10199400704700BF0800002008B5FFF7F7FF074BAA
:1019A4005B6803F4E0634FF4E06292FAA2F2B2FAE5
:1019B40082F2D340024AD35CD84008BD00100240F2
:1019C400A02C000808B5FFF7E1FF074B5B6803F4A0
:1019D40060534FF4605292FAA2F2B2FA82F2D34008
:1019E400024AD35CD84008BD00100240A02C000875
:1019F400F0B583B00446036813F4803F48D0A14B8C
:101A0400DB6913F0805F40F021819E4BDA6942F07C
:101A14008052DA61DB6903F080530193019B012555
:101A2400994B1B6813F4807F00F01281954B1B6A5D
:101A340013F4407322D0626802F440729A421DD0BB
:101A44009048016A21F440764FF4803393FAA3F26C
:101A5400B2FA82F28D4F3A4492004FF0010CC2F870
:101A640000C093FAA3F3B3FA83F33B449B00002230
:101A74001A60066211F0010F40F0FF80814A136A78
:101A840023F4407361680B431362002D40F02381FB
:101A9400236813F0010F06D07A4A136B23F0030373
:101AA400A1680B431363236813F0020F06D0754A31
:101AB400136B23F44033E1680B431363236813F07F
:101AC400040F06D06F4A136B23F4402321690B43A0
:101AD4001363236813F0200F06D06A4A136B23F0B4
:101AE4001003E1690B431363236813F4003F06D02A
:101AF400644A536823F48003616D0B435360236885
:101B040013F0400F06D05F4A136B23F02003216AC1
:101B14000B431363236813F4802F06D0594A136BC5
:101B240023F04003616A0B431363236813F0080F27
:101B340006D0544A136B23F4401361690B431363B7
:101B4400236813F0100F06D04E4A136B23F440039E
:101B5400A1690B431363236813F4007F06D0494A39
:101B6400536823F40003216B0B435360236813F081
:101B7400800F06D0434AD36A23F4F873A16A0B4357
:101B8400D362236813F4807F06D03E4AD36A23F4D9
:101B94007853E16A0B43D362236813F4805F06D061
:101BA400384A136B23F48073616B0B43136323680C
:101BB40013F4005F06D0334A136B23F40073216CD3
:101BC4000B431363236813F4801F06D02D4A136B51
:101BD40023F08073A16B0B431363236813F4001F7A
:101BE40006D0284A136B23F00073E16B0B43136395
:101BF400236813F4800F06D0224A136B23F4806306
:101C0400616C0B431363236813F4000F06D01D4A61
:101C1400136B23F40063A16C0B431363236813F069
:101C2400807F06D0174A136B23F40053E16C0B43F7
:101C34001363236813F0007F54D0124A136B23F408
:101C44000043216D0B43136300204CE00025E7E6BD
:101C54000D4A136843F480731360FFF751FA064684
:101C6400094B1B6813F4807F7FF4E0AEFFF748FA5A
:101C7400801B6428F4D9032035E0FFF741FA0646B7
:101C84001FE000BF0010024000700040008190106F
:101C9400022393FAA3F3154B596A022393FAA3F38D
:101CA400B3FA83F303F01F03012202FA03F30B4296
:101CB4007FF4E4AEFFF724FA801B41F288339842A4
:101CC4000ED8022393FAA3F293FAA3F3002BDFD0E6
:101CD400064B196AE1E7D36923F08053D361D7E651
:101CE400032000E0002003B0F0BD00BF001002405C
:101CF400F0B482B0002236E0062400E00024B440B0
:101D04003C430235624E46F82540624C2568DC436C
:101D140025EA03064F6817F4803F01D043EA05061D
:101D24005C4D2E606D6804EA05064F6817F4003FA9
:101D340001D043EA0506574D6E60AD6804EA050616
:101D44004F6817F4801F01D043EA0506514DAE6079
:101D5400ED682C404E6816F4001F01D043EA0504D8
:101D64004C4BDC6001320B6833FA02F400F08C80D7
:101D7400012494402340F5D04D68022D01D0122D4A
:101D840010D1D608083650F826C002F00705AF0077
:101D94000F25BD402CEA050C0D69BD4045EA0C0534
:101DA40040F82650D0F800C056000325B540EF4354
:101DB4002CEA050C4D6805F00305B54045EA0C0511
:101DC40005604D6805F1FF3CBCF1010F03D9112DED
:101DD40001D0122D10D1856807EA050CCD68B540F5
:101DE40045EA0C058560456825EA04044D68C5F399
:101DF4000015954025434560C46827408C68B4406D
:101E04003C43C4604C6814F0805FABD0224CA5699D
:101E140045F00105A561A46904F001040194019C45
:101E24009508AE1C1A4C54F8267002F00304A60060
:101E34000F24B44027EA0407B0F1904F3FF45EAF9B
:101E4400164CA04216D004F58064A04214D004F5C8
:101E54008064A04212D004F58064A04210D004F53E
:101E64008064A0420ED004F58064A0423FF444AFE5
:101E7400072444E7012442E7022440E703243EE721
:101E840004243CE705243AE702B0F0BC704700BFE5
:101E9400000001400004014000100240000400481A
:101EA4000AB1816170478162704708B590F82130AA
:101EB400022B03D004238363012008BD0268136846
:101EC40023F00E0313600268136823F00103136008
:101ED400036CC16B012202FA03F34B6080F82120EA
:101EE400002380F82030436B13B198470020E4E7C7
:101EF4000020E2E7074AD36823F4E0631B041B0CC9
:101F0400000200F4E060034343F0BF6343F4003392
:101F1400D360704700ED00E030B4174BDB68C3F3C7
:101F24000223C3F10704042C28BF04241D1D062D1D
:101F340018D9033B4FF0FF3505FA04F421EA0401F4
:101F4400994005FA03F322EA0303194300280BDB43
:101F54000901C9B200F1604000F5614080F8001346
:101F640030BC70470023E5E700F00F000901C9B257
:101F7400024B1954F4E700BF00ED00E014ED00E05B
:101F8400002807DB00F01F02400901239340024AA6
:101F940042F82030704700BF00E100E00138B0F1A2
:101FA400807F0AD2064B5860064AF02182F823103B
:101FB4000020986007221A6070470120704700BF14
:101FC40010E000E000ED00E003689A6912F0020FEF
:101FD40001D000229A6203689A6912F0010F03D1BA
:101FE4009A6942F001029A61704770B4039E0568D1
:101FF4006868740D04F4806444F07F7444F45834C5
:1020040044F47F7444F0030420EA0400C1F309019A
:1020140041EA0241194331430143696070BC70478E
:1020240011F0010F09D090F8413003F02803282B58
:1020340001D0F22302E0422300E0002311F0020F5A
:102044002CD010B443F0440490F8412002F028024C
:10205400282A18D043F0F40311F0040F01D043F000
:10206400B80301F01102112A0FD001F01201122954
:102074000ED012290FD001680A6822EA03030B600C
:102084005DF8044B70472346E6E743F09003ECE722
:1020940043F02003EDE743F04003ECE711F0040FB5
:1020A40001D043F0B80301F01102112A0BD001F062
:1020B400120112290AD012290BD001680A6822EAF7
:1020C40003030B60704743F09003F0E743F02003F1
:1020D400F1E743F04003F0E7F8B505460E4617462E
:1020E40003689B6913F0100F01D10020F8BD2B6821
:1020F4009C6914F0200F17D1B6F1FF3FF7D0FEF71B
:10210400FFFFC01BB04201D8002EF0D16B6C43F02E
:1021140020036B64202385F84130002385F8423086
:1021240085F840300120E1E71022DA612B68202491
:10213400DC612846FFF748FF2A68536823F0FF73E1
:1021440023F48B3323F4FF7323F0010353606B6C8C
:1021540043F004036B6485F84140002385F8423062
:1021640085F840300120C1E770B504460D46164697
:1021740023689B6913F0020F1DD13246294620467D
:10218400FFF7AAFFC8B9B5F1FF3FF1D0FEF7B8FFDA
:10219400801BA84201D8002DEAD1636C43F02003D0
:1021A4006364202384F84130002384F8423084F8A7
:1021B4004030012000E0002070BD0120FCE72DE943
:1021C400F0410646884617461D463468A46938EA35
:1021D40004030CBF01240024BC4218D1B5F1FF3F15
:1021E400F3D0FEF78DFF069BC01AA84201D8002D3C
:1021F400EBD1736C43F020037364202386F84130E1
:10220400002386F8423086F84030012000E00020A8
:10221400BDE8F0812DE9F04182B0044690461D46A8
:10222400089E099F194B00934FF08073EAB2FFF7A1
:10223400DCFE3A4631462046FFF796FFF8B9012DF9
:102244000ED123685FFA88F29A620097334600221F
:1022540080212046FFF7B3FFA8B902B0BDE8F081A2
:1022640023684FEA18229A623A4631462046FFF71D
:102274007BFF30B923685FFA88F29A62E5E70120B0
:10228400EBE70120E9E70120E7E700BF0020008039
:1022940070B505460C4616462B689B6913F0200F53
:1022A4001AD1324621462846FFF716FFB0B9FEF789
:1022B40027FF801BA04201D8002CEDD16B6C43F0AA
:1022C40020036B64202385F84130002385F84230D5
:1022D40085F84030012070BD0020FCE70120FAE7BA
:1022E400002859D010B5044690F84130002B43D053
:1022F400242384F841302268136823F00103136017
:102304006368226823F0706313612268936823F47E
:1023140000439360E368012B33D0A368226843F43D
:1023240004439360E368022B31D02268536843F07E
:10233400007343F4004353602268D36823F40043DA
:10234400D360236962691343A169226843EA0123C4
:10235400D360E369216A22680B431360226813681F
:1023640043F00103136000206064202384F84130AB
:10237400206384F8420010BD80F84030FEF744F931
:10238400B6E7A368226843F400439360CAE723686E
:102394004FF400625A60C8E7012070472DE9F04FFE
:1023A40083B00E46BDF834A00E9D90F84110C9B21A
:1023B400202940F0BB800446904699460C9BCBB143
:1023C400BAF1000F16D090F84030012B00F0B28023
:1023D4004FF0010B80F840B0FEF792FE07460090E4
:1023E40019235A464FF400412046FFF7E8FE30B166
:1023F40001209CE04FF400736364012097E02123E3
:1024040084F84130402384F84230002363640C9AFA
:102414006262A4F82AA06363019700954B46424682
:1024240031462046FFF7F6FE70B9638D9BB2FF2B51
:102434000FD9FF222285002300934FF08073314689
:102444002046FFF7D2FD21E0002384F840305846AF
:102454006DE0628D92B22285002300934FF00073E9
:10246400D2B231462046FFF7C0FD0FE0628D92B232
:102474002285002300934FF00073D2B231462046E8
:10248400FFF7B3FD638D9BB2002B33D03A46294648
:102494002046FFF769FE00284ED1626A236812784D
:1024A4009A62636A01336362638D9BB2013B9BB2A0
:1024B4006385238D013B9BB22385628D92B2002AF2
:1024C400E0D0002BDED100972B460022802120464D
:1024D400FFF775FE90BB638D9BB2FF2BC6D9FF221D
:1024E4002285002300934FF0807331462046FFF786
:1024F4007CFDC7E73A4629462046FFF7C9FEF8B9EE
:1025040023682022DA6121684B6823F0FF7323F4E7
:102514008B3323F4FF7323F001034B6084F84120D1
:10252400002384F8423084F8403000E0022003B0F5
:10253400BDE8F08F0220FAE70120F8E70120F6E772
:102544000120F4E708B5036899691A68436B03B17D
:10255400984708BD7047704710B50446002380F8BB
:10256400423090F84130DBB2292B05D090F841304D
:10257400DBB22A2B0FD010BD282380F84130212351
:1025840003630121FFF74CFD002384F8403020460B
:10259400FFF7E0FFEFE7282380F8413022230363AD
:1025A4000221FFF73DFD002384F840302046FFF769
:1025B400D2FFE0E77047F8B5044690F8413003F0E5
:1025C4002803282B06D003680822DA61002380F848
:1025D4004030F8BD03689E69C6F300469A69120C40
:1025E40002F0FE059A68C2F30902DF6807F0FE07ED
:1025F400C168022921D185EAD21515F0060F10D140
:10260400816C01318164816C0229E2D100218164F1
:102614000820D86184F8401031462046FFF7CAFFED
:10262400D7E70421FFF7FCFC002384F840303A4646
:1026340031462046FFF7BEFFCBE70421FFF7F0FC4D
:10264400002384F840302A4631462046FFF7B2FF83
:10265400BFE7704710B50446174BC36200230363FA
:10266400202280F8412080F84230436311F0040FA7
:1026740013D003685A6A436A1A70436A0133436287
:10268400038D53B1013B0385438D9BB2013B9BB248
:102694004385436C43F00403436407212046FFF75A
:1026A400BFFC23681022DA61002384F840302046FE
:1026B400FFF7CFFF10BD00BF0000FFFF7047000011
:1026C40010B5044690F84130002084F84200364AA0
:1026D400E2626085626C0A436264283BDBB2022BCF
:1026E40024D803212046FFF79BFC282384F841309B
:1026F400002323632D4B636323681A6812F4804F0D
:1027040024D01A6822F480421A60A36B002B3FD0B5
:10271400274A5A63002384F84030A06BFFF7C5FBB7
:10272400002835D0A06B436B984731E00721204641
:10273400FFF776FC94F84130DBB2602B02D0202303
:1027440084F84130002323636363D5E71A6812F4E5
:10275400004F12D01A6822F400421A60E36BBBB136
:10276400134A5A63002384F84030E06BFFF79DFB63
:1027740070B1E06B436B98470AE094F84130DBB2E8
:10278400602B06D0002384F840302046FDF78AFDF4
:1027940010BD202384F84130002384F840302046C3
:1027A400FFF78CFFF4E700BF0000FFFFD928000803
:1027B400912A000870B504460D4603681E6820225D
:1027C400DA610721FFF72CFC2268536843F40043C5
:1027D40053602268536823F0FF7323F48B3323F48C
:1027E400FF7323F0010353602046FFF7EDFB16F45B
:1027F400804F3BD0A36B1BB11B685B689BB26385A6
:1028040015F0040F11D025F0040523685A6A636A91
:102814001A70636A01336362238D33B1013B2385EC
:10282400638D9BB2013B9BB26385638D9BB21BB1ED
:10283400636C43F0040363640023236384F842302D
:102844006363636CEBB9E36A13F5803F27D194F8B3
:102854004130DBB2222B31D0202384F841300023D5
:1028640084F840302046FFF775FE26E016F4004F4A
:10287400C6D0E36B002BC3D01B685B689BB2638537
:10288400BEE7616C2046FFF71BFF94F84130DBB2D2
:10289400282B12D129462046FFF7DCFE0DE0204606
:1028A400FFF75AFE0A4BE362202384F841300023E9
:1028B40084F840302046FFF7CCFE70BD202384F816
:1028C4004130002384F840302046FFF744FEF4E70B
:1028D4000000FFFFF8B5C76A90F84030012B00F004
:1028E4009E8004460D461646012380F8403011F0C0
:1028F400200F02D012F0200F19D115F0100F3ED086
:1029040016F0100F3BD0638D9BB243BB94F841305B
:10291400DBB2282B0ED094F84130DBB2292B11D036
:1029240023681022DA61002084F84000F8BDFFF724
:1029340041FFE2E7B7F1007FEDD129462046FFF7DA
:1029440089FEF0E717F5803FEAD023681022DA61A8
:102954002046FFF739FB2046FFF7FEFDE3E7236837
:102964001022DA61636C43F00403636417B1B7F1B6
:10297400807FD8D1616C2046FFF7A2FED3E715F023
:10298400040F1FD016F0040F1CD0638D9BB273B1DB
:1029940023685A6A636A1A70636A01336362238D17
:1029A400013B2385638D9BB2013B9BB26385638DA1
:1029B4009BB2002BB7D117F5803FB4D02046FFF768
:1029C400CBFDB0E715F0080F02D016F0080F18D1B0
:1029D40015F0020FA7D016F0020FA4D0638D9BB29E
:1029E400A3B1626A236812789A62636A01336362EC
:1029F400638D9BB2013B9BB26385238D013B238591
:102A040091E729462046FFF7D6FD8CE7B7F1807F92
:102A140001D0002F87D12046FFF79EFD83E70220D7
:102A240084E710B502689369116813F4807F09D0B4
:102A340011F0800F06D0446C44F0010444644FF458
:102A44008074D46113F4806F0AD011F0800F07D022
:102A5400426C42F00802426402684FF48064D4611C
:102A640013F4007F0AD011F0800F07D0436C43F0B9
:102A74000203436403684FF40072DA61416C11F09D
:102A84000B0F00D110BDFFF71BFEFBE708B5406A32
:102A9400826B00235363C26B536390F84130DBB203
:102AA400602B02D0FDF7FEFB08BD202380F84130E7
:102AB400FFF704FEF8E790F84130DBB2202B24D175
:102AC40090F84030012B22D0012380F84030242399
:102AD40080F841300268136823F001031360026830
:102AE400136823F480531360026813681943116058
:102AF4000268136843F001031360202380F8413017
:102B0400002380F8403018467047022070470220A6
:102B1400704790F84130DBB2202B22D190F840303E
:102B2400012B20D0012380F84030242380F8413049
:102B34000268136823F0010313600268136823F426
:102B4400706343EA012111600268136843F00103D2
:102B54001360202380F84130002380F84030184669
:102B6400704702207047022070470000054BD3F8DD
:102B7400882042F47002C3F888204FF000629A6003
:102B8400704700BF00ED00E0DFF834D0002103E01F
:102B94000C4B5B58435004310B480C4B42189A427F
:102BA400F6D30B4A02E0002342F8043B094B9A4255
:102BB400F9D3FFF7DBFF00F011F8FDF7CBFCFEE7DC
:102BC40000000120B02C0008000000200C000020B0
:102BD4000C00002034010020FEE7000070B50D4D0C
:102BE4000D4C641BA4100026A64209D10B4D0C4CBD
:102BF40000F028F8641BA4100026A64205D170BD7D
:102C040055F8043B98470136EEE755F8043B9847DE
:102C14000136F2E7A82C0008A82C0008A82C00080C
:102C2400AC2C000802440346934200D1704703F8D9
:102C3400011BF9E7034611F8012B03F8012B002AC5
:102C4400F9D17047F8B500BFF8BC08BC9E46704780
:0C2C5400F8B500BFF8BC08BC9E467047F5
:102C60000A0000004D435520737461727400000027
:102C700002030405060708090A0B0C0D0E0F1010BD
:102C80000102030405060708090A0B0C0D0E0F10BC
:102C9000000000000000000001020304060708090C
:082CA000000000000102030422
:042CA800B901000866
:042CAC009501000886
:0C2CB000010000001000000000127A007B
:0400000508002B8D37
:00000001FF
