:020000040800F2
:1000000000000120C1170008210300082303000895
:10001000250300082703000829030008000000004A
:100020000000000000000000000000002B0300089A
:100030002D030008000000002F0300083103000812
:1000400011180008111800081118000811180008EC
:1000500011180008111800081118000811180008DC
:1000600011180008111800081118000811180008CC
:1000700011180008111800081118000811180008BC
:1000800011180008111800081118000811180008AC
:10009000111800081118000811180008111800089C
:1000A000111800081118000811180008111800088C
:1000B000111800081118000811180008111800087C
:1000C000111800081118000811180008111800086C
:1000D000111800081118000811180008111800085C
:1000E000111800081118000811180008111800084C
:1000F000111800081118000811180008111800083C
:10010000111800080000000000000000111800088D
:10011000111800081118000811180008111800081B
:10012000111800081118000811180008111800080B
:10013000111800081118000800000000000000005D
:10014000111800081118000811180008000000001C
:10015000000000000000000000000000000000009F
:1001600011180008111800081118000811180008CB
:1001700011180008111800081118000811180008BB
:10018000111800081118000800000000000000000D
:04019000111800083A
:1001940010B5054C237833B9044B13B10448AFF3BD
:1001A40000800123237010BD0C000020000000001B
:1001B4006C18000808B5034B1BB103490348AFF39F
:1001C400008008BD00000000100000206C1800082A
:1001D40010B58AB0002405940694079408940994F1
:1001E400204B5A6942F400225A615A6902F40022EF
:1001F4000192019A5A6942F480025A615A6902F4DE
:1002040080020292029A5A6942F400325A615A698F
:1002140002F400320392039A5A6942F480225A612A
:100224005B6903F480230493049B224620214FF04E
:10023400904001F053FA4FF4005305930A4B069390
:10024400079405A9094801F071F9202305930123B6
:1002540006930794089405A94FF0904001F066F9BD
:100264000AB010BD00100240000021100008004830
:1002740008B50948094B03604FF416434360002353
:100284008360C36003610C2242618361C3610362C2
:10029400436200F0F1FA08BD280000200044004049
:1002A40030B5A7B000241D941E942194179418947B
:1002B40019941A941B945822214601A801F0CCFAEF
:1002C40002251C9501231F931023209322954FF49C
:1002D400004323934FF4E013249325941CA800F0C7
:1002E40047FB0F231793189519944FF480631A93BF
:1002F4001B94294617A800F093FE0195049401A8C5
:1003040000F094FF27B030BD08B500F00DFBFFF7F7
:10031400C7FFFFF75DFFFFF7ABFFFEE77047FEE7A0
:10032400FEE7FEE7FEE770477047704708B500F048
:100334000DFB08BD00B583B00C4B9A6942F0010275
:100344009A619A6902F001020092009ADA6942F015
:100354008052DA61DB6903F080530193019B07202B
:1003640001F0C2F903B05DF804FB00BF00100240C5
:1003740000B589B000230393049305930693079370
:100384000268144B9A4202D009B05DF804FB03F5ED
:10039400E633DA6942F40032DA61DA6902F40032EF
:1003A4000192019A5A6942F400325A615B6903F47A
:1003B40000330293029B0C23039302230493002330
:1003C400059306930723079303A94FF0904001F088
:1003D400ADF8D9E70044004038B5044683680269A3
:1003E400134342691343C269134301680868A54A69
:1003F400024013430B602268536823F44053E168BE
:100404000B435360A269236A1A4321688B6823F45F
:10041400306313438B6023689B4A93420DD09B4AFD
:1004240093421CD09A4A93423ED09A4A93424ED069
:10043400994A93425ED010251FE0984B1B6B03F042
:100444000303032B09D8DFE803F00204066801253F
:1004540013E0042511E008250FE010250DE08F4B73
:100464001B6B03F44033B3F5003F58D017D8002B6F
:1004740057D0B3F5803F56D10425E369B3F5004F57
:100484006DD0082D00F2F680DFE815F0B700CC003F
:10049400D600F400E100F400F400F400EB00B3F53E
:1004A400403F42D10225E8E77C4B1B6B03F4402319
:1004B400B3F5002F3BD005D8DBB3B3F5802F3AD189
:1004C4000425DAE7B3F5402F37D10225D5E7734B7E
:1004D4001B6B03F44013B3F5001F30D005D883B36E
:1004E400B3F5801F2FD10425C7E7B3F5401F2CD1E6
:1004F4000225C2E7694B1B6B03F44003B3F5000FFD
:1005040025D005D82BB3B3F5800F24D10425B4E747
:10051400B3F5400F21D10225AFE70225ADE7082549
:10052400ABE70025A9E71025A7E71025A5E70825CF
:10053400A3E70025A1E710259FE710259DE70825DF
:100544009BE7002599E7102597E7102595E70825EF
:1005540093E7002591E710258FE710258DE7082DF7
:1005640048D8DFE805F0051D2847334747473E00D4
:1005740000F030FE6268530803EB4003B3FBF2F370
:100584009BB2A3F110014FF6EF72914275D89AB263
:1005940022F00F02C3F3420313432268D3603CE00A
:1005A40000F02EFE6268530803EB4003B3FBF2F342
:1005B4009BB20025E5E76268530803F5740303F56D
:1005C4001053B3FBF2F39BB20025DAE700F0F0FC22
:1005D4006268530803EB4003B3FBF2F39BB20025BC
:1005E400CFE76268530803F58033B3FBF2F39BB2A1
:1005F4000025C6E701250023C3E700F0EBFD626890
:1006040000EB5203B3FBF2F39BB2A3F110014FF6DC
:10061400EF72914233D82268D36000232366636665
:10062400284638BD00F0ECFD626800EB5203B3FBD2
:10063400F2F39BB20025E8E76268530803F5F4037C
:1006440003F59053B3FBF2F39BB20025DDE700F012
:10065400AFFC626800EB5203B3FBF2F39BB20025DC
:10066400D3E76268530803F50043B3FBF2F39BB28C
:100674000025CAE701250023C7E70125CDE70125A9
:10068400CBE700BFF369FFEF0038014000440040AE
:1006940000480040004C0040005000400010024060
:1006A400436A13F0010F06D00268536823F4003341
:1006B400816A0B435360436A13F0020F06D0026849
:1006C400536823F48033C16A0B435360436A13F0C5
:1006D400040F06D00268536823F48023016B0B4394
:1006E4005360436A13F0080F06D00268536823F47A
:1006F4000043416B0B435360436A13F0100F06D061
:100704000268936823F48053816B0B439360436ABC
:1007140013F0200F06D00268936823F40053C16BD2
:100724000B439360436A13F0400F0AD00268536886
:1007340023F48013016C0B435360036CB3F5801FE7
:100744000BD0436A13F0800F06D00268536823F479
:100754000023816C0B43536070470268536823F491
:10076400C003416C0B435360EBE72DE9F8430546A6
:100774000F4616469946DDF820802C68E46937EA6E
:1007840004030CBF01240024B4423CD1B8F1FF3F60
:10079400F3D000F0E7F8A0EB0900404521D8B8F108
:1007A400000F1ED02B681A6812F0040FE5D0DA6926
:1007B40012F4006FE1D04FF400621A622A681368E1
:1007C40023F4D07313602A68936823F001039360C1
:1007D40020236B67AB67EB67002385F87030032039
:1007E40012E02A68136823F4D07313602A689368AC
:1007F40023F00103936020236B67AB67002385F824
:100804007030032000E00020BDE8F88330B583B0E9
:1008140004460023C36700F0A5F8054623681B6857
:1008240013F0080F0CD123681B6813F0040F15D1C3
:1008340020236367A367002084F8700003B030BDF1
:100844006FF07E430093034600224FF400112046CC
:10085400FFF78BFF0028E6D00320EFE76FF07E431D
:1008640000932B4600224FF480012046FFF77DFFC2
:100874000028DDD00320E1E768B310B50446436FD8
:1008840003B3242363672268136823F0010313600E
:100894002046FFF7A1FD012813D0636ABBB9226883
:1008A400536823F4904353602268936823F02A0327
:1008B40093602268136843F0010313602046FFF736
:1008C400A5FF10BD80F87030FFF752FDD9E7204630
:1008D400FFF7E6FEE3E701207047000010B5044689
:1008E4000E4B18784FF47A73B3FBF0F30C4A10688C
:1008F400B0FBF3F000F03EFF68B90F2C01D90120E2
:100904000AE0002221464FF0FF3000F0FFFE054BC5
:100914001C60002000E0012010BD00BF000000208A
:10092400080000200400002008B5074A136843F0BB
:1009340010031360032000F0D7FE0020FFF7CEFF62
:10094400FFF7F8FC002008BD00200240034A1168AC
:10095400034B1B780B441360704700BFA8000020B2
:1009640000000020014B1868704700BFA800002059
:10097400002800F0038370B582B00446036813F0C6
:10098400010F3DD0C74B5B6803F00C03042B20D050
:10099400C44B5B6803F00C03082B13D06368B3F5F6
:1009A400803F6AD0002B40F08D8003F1804303F533
:1009B40004331A6822F480321A601A6822F48022FE
:1009C4001A605FE0B74B5B6803F4C033B3F5803F54
:1009D400E4D14FF4003393FAA3F3B24B19684FF404
:1009E400003393FAA3F3B3FA83F303F01F03012252
:1009F40002FA03F30B4203D06368002B00F0C082B9
:100A0400236813F0020F00F0C080A64B5B6813F05C
:100A14000C0F00F09780A34B5B6803F00C03082BCA
:100A240000F08880E368002B00F0ED80012292FA48
:100A3400A2F3B3FA83F303F1845303F584139B0005
:100A44001A60FFF78FFF0546022393FAA3F3954B31
:100A54001968022393FAA3F3B3FA83F303F01F0391
:100A6400012202FA03F30B4240F0BE80FFF77AFF43
:100A7400401B0228E8D903208BE28A4A136843F416
:100A8400803313606368002B36D0FFF76BFF054695
:100A94004FF4003393FAA3F3824B19684FF40033F5
:100AA40093FAA3F3B3FA83F303F01F03012202FAC8
:100AB40003F30B42A4D1FFF755FF401B6428E7D989
:100AC400032066E2B3F5A02F09D0764B1A6822F40E
:100AD40080321A601A6822F480221A60D2E703F185
:100AE4008043A3F53C331A6842F480221A601A68E2
:100AF40042F480321A60C5E7FFF734FF05464FF42D
:100B0400003393FAA3F3674B19684FF4003393FA55
:100B1400A3F3B3FA83F303F01F03012202FA03F3EE
:100B24000B423FF46DAFFFF71DFF401B6428E6D96D
:100B340003202EE25B4B5B6803F4C033B3F5004F34
:100B44007FF470AF022393FAA3F3564B1968022380
:100B540093FAA3F3B3FA83F303F01F03012202FA17
:100B640003F30B4203D0E368934240F00B824D48F9
:100B7400036823F0F8032169F82292FAA2F2B2FA88
:100B840082F201FA02F213430360236813F0080FA0
:100B940000F08C806369002B5CD0012191FAA1F2F2
:100BA400B2FA82F2404B13449B001960FFF7DAFE5D
:100BB4000546022393FAA3F293FAA3F293FAA3F25B
:100BC400384A516A93FAA3F3B3FA83F303F01F0389
:100BD400012202FA03F30B4268D1FFF7C3FE401B64
:100BE4000228E6D90320D4E12E48036823F0F80351
:100BF4002169F82292FAA2F2B2FA82F201FA02F21E
:100C040013430360C1E7012393FAA3F3B3FA83F315
:100C140003F1845303F584139B0000221A60FFF749
:100C2400A1FE0546022393FAA3F31E4B196802237F
:100C340093FAA3F3B3FA83F303F01F03012202FA36
:100C440003F30B42A1D0FFF78DFE401B0228E9D924
:100C540003209EE1012292FAA2F2B2FA82F2124B2E
:100C640013449B0000221A60FFF77CFE0546022312
:100C740093FAA3F293FAA3F293FAA3F2094A516AFC
:100C840093FAA3F3B3FA83F303F01F03012202FAE6
:100C940003F30B420AD0FFF765FE401B0228E6D996
:100CA400032076E10010024020819010236813F0A5
:100CB400040F00F0A980BB4BDB6913F0805F20D1E7
:100CC400B84BDA6942F08052DA61DB6903F0805391
:100CD4000193019B0125B44B1B6813F4807F12D050
:100CE400A368012B23D073BB03F1804303F50433C2
:100CF4001A6A22F001021A621A6A22F004021A62C3
:100D04001AE00025E7E7A84A136843F480731360E8
:100D1400FFF728FE0646A44B1B6813F4807FDFD13F
:100D2400FFF720FE801B6428F5D9032031E19D4A9A
:100D3400136A43F001031362A368002B3CD0FFF74E
:100D440011FE06462EE0052B09D0964B1A6A22F0B6
:100D540001021A621A6A22F004021A62ECE7914B49
:100D64001A6A42F004021A621A6A42F001021A6212
:100D7400E2E7022393FAA3F38A4B596A022393FA14
:100D8400A3F3B3FA83F303F01F03012202FA03F37C
:100D9400194238D1FFF7E6FD801B41F288339842AF
:100DA40000F2F280022393FAA3F293FAA3F3002B46
:100DB400DFD07C4B196AE1E7FFF7D4FD064618E063
:100DC400022393FAA3F3774B596A022393FAA3F30A
:100DD400B3FA83F303F01F03012202FA03F3194267
:100DE40011D0FFF7BFFD801B41F28833984200F217
:100DF400CD80022393FAA3F293FAA3F3002BDFD05E
:100E0400684B196AE1E7B5BBA369002B00F0C08009
:100E1400644A526802F00C02082A00F09980022BFE
:100E24002FD04FF0807393FAA3F3B3FA83F303F153
:100E3400845303F584139B0000221A60FFF792FD8C
:100E440004464FF0007393FAA3F3564B19684FF01E
:100E5400007393FAA3F3B3FA83F303F01F0301229D
:100E640002FA03F3194271D0FFF77CFD001B02283C
:100E7400E7D903208DE04B4AD36923F08053D36133
:100E8400C2E74FF0807393FAA3F3B3FA83F303F149
:100E9400845303F584139B0000221A60FFF762FD5C
:100EA40005464FF0007393FAA3F33E4B19684FF0D5
:100EB400007393FAA3F3B3FA83F303F01F0301223D
:100EC40002FA03F3194206D0FFF74CFD401B022837
:100ED400E7D903205DE0334AD36A23F00F03616A44
:100EE4000B43D362536823F47613216AE069014308
:100EF4000B4353604FF0807393FAA3F3B3FA83F375
:100F040003F1845303F584139B0001221A60FFF755
:100F140029FD04464FF0007393FAA3F3214B19689B
:100F24004FF0007393FAA3F3B3FA83F303F01F03B0
:100F3400012202FA03F3194206D1FFF713FD001B45
:100F44000228E7D9032024E0002022E0002020E04A
:100F5400012B20D0134A5368D06A03F4C031E269EC
:100F640091421AD103F47013226A934217D100F00C
:100F74000F00636A984219D100200AE001207047EB
:100F8400012006E0012004E0032002E0032000E049
:100F9400002002B070BD0120FBE70120F9E7012029
:100FA400F7E700BF00100240007000400120F0E7A6
:100FB400174B5B6803F00C02082A01D015487047F0
:100FC40003F470114FF4701292FAA2F2B2FA82F2A0
:100FD40021FA02F21049885C0D4AD26A02F00F022B
:100FE4000F2191FAA1F1B1FA81F1CA400B498A5C4F
:100FF40013F4803F05D0074BB3FBF2F300FB03F07F
:101004007047044BB3FBF2F300FB03F0704700BFDF
:101014000010024000127A00841800089418000896
:10102400002800F0BE8070B50D460446614B1B6875
:1010340003F007038B420BD25E4A136823F00703C5
:101044000B431360136803F007038B4240F0AB803B
:10105400236813F0020F06D0574A536823F0F003B5
:10106400A1680B435360236813F0010F5AD06368DF
:10107400012B2DD0022B40D0022292FAA2F24E4A2A
:101084001068022292FAA2F2B2FA82F202F01F026D
:10109400012101FA02F2104200F0878046494A68B1
:1010A40022F0030213434B60FFF75CFC0646424BFD
:1010B4005B6803F00C036268B3EB820F32D0FFF776
:1010C40051FC801B41F288339842F0D9032067E039
:1010D4004FF4003292FAA2F2374A10684FF4003209
:1010E40092FAA2F2B2FA82F202F01F02012101FA8C
:1010F40002F20242D2D1012052E04FF0007292FA81
:10110400A2F22D4A10684FF0007292FAA2F2B2FADB
:1011140082F202F01F02012101FA02F21042BDD153
:1011240001203DE0234B1B6803F00703AB420AD9BF
:10113400204A136823F007032B431360136803F05A
:101144000703AB4233D1236813F0040F06D01A4AC5
:10115400536823F4E063E1680B435360236813F09E
:10116400080F07D0144A536823F46053216943EAF3
:10117400C1035360FFF71CFF0F4B5B6803F0F003E0
:10118400F02292FAA2F2B2FA82F2D3400B4AD35C72
:10119400D8400B4B18600B4B1868FFF79FFB0020DF
:1011A40070BD012070470120FAE70120F8E7012013
:1011B400F6E700BF0020024000100240A418000817
:1011C4000800002004000020014B1868704700BF8D
:1011D4000800002008B5FFF7F7FF074B5B6803F42E
:1011E400E0634FF4E06292FAA2F2B2FA82F2D340E0
:1011F400024AD35CD84008BD00100240B41800086D
:1012040008B5FFF7E1FF074B5B6803F460534FF445
:10121400605292FAA2F2B2FA82F2D340024AD35C4A
:10122400D84008BD00100240B4180008F0B583B0DF
:101234000446036813F4803F48D0A14BDB6913F0E4
:10124400805F40F021819E4BDA6942F08052DA617E
:10125400DB6903F080530193019B0125994B1B68C3
:1012640013F4807F00F01281954B1B6A13F44073D2
:1012740022D0626802F440729A421DD09048016AFA
:1012840021F440764FF4803393FAA3F2B2FA82F257
:101294008D4F3A4492004FF0010CC2F800C093FA0B
:1012A400A3F3B3FA83F33B449B0000221A60066263
:1012B40011F0010F40F0FF80814A136A23F4407358
:1012C40061680B431362002D40F02381236813F0FF
:1012D400010F06D07A4A136B23F00303A1680B4372
:1012E4001363236813F0020F06D0754A136B23F4BB
:1012F4004033E1680B431363236813F0040F06D0F3
:101304006F4A136B23F4402321690B43136323684F
:1013140013F0200F06D06A4A136B23F01003E1691F
:101324000B431363236813F4003F06D0644A5368E5
:1013340023F48003616D0B435360236813F0400F63
:1013440006D05F4A136B23F02003216A0B43136317
:10135400236813F4802F06D0594A136B23F04003FB
:10136400616A0B431363236813F0080F06D0544AD1
:10137400136B23F4401361690B431363236813F065
:10138400100F06D04E4A136B23F44003A1690B439C
:101394001363236813F4007F06D0494A536823F487
:1013A4000003216B0B435360236813F0800F06D0B6
:1013B400434AD36A23F4F873A16A0B43D3622368C4
:1013C40013F4807F06D03E4AD36A23F47853E16A4B
:1013D4000B43D362236813F4805F06D0384A136B3F
:1013E40023F48073616B0B431363236813F4005F6E
:1013F40006D0334A136B23F40073216C0B4313633D
:10140400236813F4801F06D02D4A136B23F08073D6
:10141400A16B0B431363236813F4001F06D0284AFF
:10142400136B23F00073E16B0B431363236813F412
:10143400800F06D0224A136B23F48063616C0B4344
:101444001363236813F4000F06D01D4A136B23F4AF
:101454000063A16C0B431363236813F0807F06D0F1
:10146400174A136B23F40053E16C0B431363236893
:1014740013F0007F54D0124A136B23F40043216D00
:101484000B43136300204CE00025E7E60D4A136884
:1014940043F480731360FFF765FA0646094B1B6833
:1014A40013F4807F7FF4E0AEFFF75CFA801B6428BE
:1014B400F4D9032035E0FFF755FA06461FE000BFD4
:1014C400001002400070004000819010022393FA43
:1014D400A3F3154B596A022393FAA3F3B3FA83F3E4
:1014E40003F01F03012202FA03F30B427FF4E4AE7C
:1014F400FFF738FA801B41F2883398420ED8022352
:1015040093FAA3F293FAA3F3002BDFD0064B196AE4
:10151400E1E7D36923F08053D361D7E6032000E0E9
:10152400002003B0F0BD00BF00100240F0B482B050
:10153400002236E0062400E00024B4403C43023597
:10154400624E46F82540624C2568DC4325EA0306D2
:101554004F6817F4803F01D043EA05065C4D2E60C6
:101564006D6804EA05064F6817F4003F01D043EAAA
:101574000506574D6E60AD6804EA05064F6817F41A
:10158400801F01D043EA0506514DAE60ED682C4042
:101594004E6816F4001F01D043EA05044C4BDC608E
:1015A40001320B6833FA02F400F08C800124944079
:1015B4002340F5D04D68022D01D0122D10D1D6084C
:1015C400083650F826C002F00705AF000F25BD40CD
:1015D4002CEA050C0D69BD4045EA0C0540F826507F
:1015E400D0F800C056000325B540EF432CEA050CA3
:1015F4004D6805F00305B54045EA0C0505604D68E6
:1016040005F1FF3CBCF1010F03D9112D01D0122DBE
:1016140010D1856807EA050CCD68B54045EA0C058C
:101624008560456825EA04044D68C5F300159540B6
:1016340025434560C46827408C68B4403C43C4607B
:101644004C6814F0805FABD0224CA56945F00105CD
:10165400A561A46904F001040194019C9508AE1CE1
:101664001A4C54F8267002F00304A6000F24B44068
:1016740027EA0407B0F1904F3FF45EAF164CA04246
:1016840016D004F58064A04214D004F58064A0420E
:1016940012D004F58064A04210D004F58064A04206
:1016A4000ED004F58064A0423FF444AF072444E71D
:1016B400012442E7022440E703243EE704243CE7F4
:1016C40005243AE702B0F0BC704700BF00000140B7
:1016D4000004014000100240000400480AB1816186
:1016E4007047816270470000074AD36823F4E063BF
:1016F4001B041B0C000200F4E060034343F0BF63CF
:1017040043F40033D360704700ED00E030B4174B6E
:10171400DB68C3F30223C3F10704042C28BF0424A9
:101724001D1D062D18D9033B4FF0FF3505FA04F4AF
:1017340021EA0401994005FA03F322EA0303194359
:1017440000280BDB0901C9B200F1604000F56140DB
:1017540080F8001330BC70470023E5E700F00F0069
:101764000901C9B2024B1954F4E700BF00ED00E0CF
:1017740014ED00E00138B0F1807F0AD2064B5860C6
:10178400064AF02182F823100020986007221A608C
:1017940070470120704700BF10E000E000ED00E05A
:1017A400054BD3F8882042F47002C3F888204FF028
:1017B40000629A60704700BF00ED00E0DFF834D0AB
:1017C400002103E00C4B5B58435004310B480C4B95
:1017D40042189A42F6D30B4A02E0002342F8043B33
:1017E400094B9A42F9D3FFF7DBFF00F011F8FEF73B
:1017F4008BFDFEE700000120C41800080000002053
:101804000C0000200C000020AC000020FEE70000CB
:1018140070B50D4D0D4C641BA4100026A64209D1D1
:101824000B4D0C4C00F020F8641BA4100026A642BB
:1018340005D170BD55F8043B98470136EEE755F8DD
:10184400043B98470136F2E7BC180008BC180008AE
:10185400BC180008C018000802440346934200D193
:10186400704703F8011BF9E7F8B500BFF8BC08BCE2
:101874009E467047F8B500BFF8BC08BC9E4670474A
:1018840002030405060708090A0B0C0D0E0F1010BD
:101894000102030405060708090A0B0C0D0E0F10BC
:1018A400000000000000000001020304060708090C
:0818B400000000000102030422
:0418BC00B901000866
:0418C0009501000886
:0C18C400010000001000000000127A007B
:04000005080017C117
:00000001FF
